{
	"MyContract.sol": {
		"MyContract": {
			"abi": [
				{
					"inputs": [
						{
							"internalType": "string",
							"name": "_value",
							"type": "string"
						}
					],
					"name": "addValue",
					"outputs": [],
					"stateMutability": "nonpayable",
					"type": "function"
				},
				{
					"inputs": [
						{
							"internalType": "uint256",
							"name": "",
							"type": "uint256"
						},
						{
							"internalType": "uint256",
							"name": "",
							"type": "uint256"
						}
					],
					"name": "array2D",
					"outputs": [
						{
							"internalType": "uint256",
							"name": "",
							"type": "uint256"
						}
					],
					"stateMutability": "view",
					"type": "function"
				},
				{
					"inputs": [],
					"name": "valueCount",
					"outputs": [
						{
							"internalType": "uint256",
							"name": "",
							"type": "uint256"
						}
					],
					"stateMutability": "view",
					"type": "function"
				},
				{
					"inputs": [
						{
							"internalType": "uint256",
							"name": "",
							"type": "uint256"
						}
					],
					"name": "values",
					"outputs": [
						{
							"internalType": "string",
							"name": "",
							"type": "string"
						}
					],
					"stateMutability": "view",
					"type": "function"
				}
			],
			"devdoc": {
				"kind": "dev",
				"methods": {},
				"version": 1
			},
			"evm": {
				"assembly": "    /* \"MyContract.sol\":65:365  contract MyContract {... */\n  mstore(0x40, 0x80)\n    /* \"MyContract.sol\":121:165  uint[][] public array2D = [[1,2,3], [4,5,6]] */\n  mload(0x40)\n  dup1\n  0x40\n  add\n  0x40\n  mstore\n  dup1\n  mload(0x40)\n  dup1\n  0x60\n  add\n  0x40\n  mstore\n  dup1\n    /* \"MyContract.sol\":149:150  1 */\n  0x01\n    /* \"MyContract.sol\":121:165  uint[][] public array2D = [[1,2,3], [4,5,6]] */\n  0xff\n  and\n  dup2\n  mstore\n  0x20\n  add\n    /* \"MyContract.sol\":151:152  2 */\n  0x02\n    /* \"MyContract.sol\":121:165  uint[][] public array2D = [[1,2,3], [4,5,6]] */\n  0xff\n  and\n  dup2\n  mstore\n  0x20\n  add\n    /* \"MyContract.sol\":153:154  3 */\n  0x03\n    /* \"MyContract.sol\":121:165  uint[][] public array2D = [[1,2,3], [4,5,6]] */\n  0xff\n  and\n  dup2\n  mstore\n  pop\n  dup2\n  mstore\n  0x20\n  add\n  mload(0x40)\n  dup1\n  0x60\n  add\n  0x40\n  mstore\n  dup1\n    /* \"MyContract.sol\":158:159  4 */\n  0x04\n    /* \"MyContract.sol\":121:165  uint[][] public array2D = [[1,2,3], [4,5,6]] */\n  0xff\n  and\n  dup2\n  mstore\n  0x20\n  add\n    /* \"MyContract.sol\":160:161  5 */\n  0x05\n    /* \"MyContract.sol\":121:165  uint[][] public array2D = [[1,2,3], [4,5,6]] */\n  0xff\n  and\n  dup2\n  mstore\n  0x20\n  add\n    /* \"MyContract.sol\":162:163  6 */\n  0x06\n    /* \"MyContract.sol\":121:165  uint[][] public array2D = [[1,2,3], [4,5,6]] */\n  0xff\n  and\n  dup2\n  mstore\n  pop\n  dup2\n  mstore\n  pop\n  0x01\n  swap1\n  0x02\n  tag_1\n  swap3\n  swap2\n  swap1\n  tag_2\n  jump\t// in\ntag_1:\n  pop\n    /* \"MyContract.sol\":65:365  contract MyContract {... */\n  callvalue\n  dup1\n  iszero\n  tag_3\n  jumpi\n  0x00\n  dup1\n  revert\ntag_3:\n  pop\n  jump(tag_4)\ntag_2:\n  dup3\n  dup1\n  sload\n  dup3\n  dup3\n  sstore\n  swap1\n  0x00\n  mstore\n  keccak256(0x00, 0x20)\n  swap1\n  dup2\n  add\n  swap3\n  dup3\n  iszero\n  tag_5\n  jumpi\n  swap2\n  0x20\n  mul\n  dup3\n  add\ntag_6:\n  dup3\n  dup2\n  gt\n  iszero\n  tag_7\n  jumpi\n  dup3\n  mload\n  dup3\n  swap1\n  0x03\n  tag_8\n  swap3\n  swap2\n  swap1\n  tag_9\n  jump\t// in\ntag_8:\n  pop\n  swap2\n  0x20\n  add\n  swap2\n  swap1\n  0x01\n  add\n  swap1\n  jump(tag_6)\ntag_7:\ntag_5:\n  pop\n  swap1\n  pop\n  tag_10\n  swap2\n  swap1\n  tag_11\n  jump\t// in\ntag_10:\n  pop\n  swap1\n  jump\t// out\ntag_9:\n  dup3\n  dup1\n  sload\n  dup3\n  dup3\n  sstore\n  swap1\n  0x00\n  mstore\n  keccak256(0x00, 0x20)\n  swap1\n  dup2\n  add\n  swap3\n  dup3\n  iszero\n  tag_12\n  jumpi\n  swap2\n  0x20\n  mul\n  dup3\n  add\ntag_13:\n  dup3\n  dup2\n  gt\n  iszero\n  tag_14\n  jumpi\n  dup3\n  mload\n  dup3\n  swap1\n  0xff\n  and\n  swap1\n  sstore\n  swap2\n  0x20\n  add\n  swap2\n  swap1\n  0x01\n  add\n  swap1\n  jump(tag_13)\ntag_14:\ntag_12:\n  pop\n  swap1\n  pop\n  tag_15\n  swap2\n  swap1\n  tag_16\n  jump\t// in\ntag_15:\n  pop\n  swap1\n  jump\t// out\ntag_11:\ntag_17:\n  dup1\n  dup3\n  gt\n  iszero\n  tag_18\n  jumpi\n  0x00\n  dup2\n  dup2\n  tag_19\n  swap2\n  swap1\n  tag_20\n  jump\t// in\ntag_19:\n  pop\n  0x01\n  add\n  jump(tag_17)\ntag_18:\n  pop\n  swap1\n  jump\t// out\ntag_16:\ntag_21:\n  dup1\n  dup3\n  gt\n  iszero\n  tag_22\n  jumpi\n  0x00\n  dup2\n  0x00\n  swap1\n  sstore\n  pop\n  0x01\n  add\n  jump(tag_21)\ntag_22:\n  pop\n  swap1\n  jump\t// out\ntag_20:\n  pop\n  dup1\n  sload\n  0x00\n  dup3\n  sstore\n  swap1\n  0x00\n  mstore\n  keccak256(0x00, 0x20)\n  swap1\n  dup2\n  add\n  swap1\n  tag_24\n  swap2\n  swap1\n  tag_16\n  jump\t// in\ntag_24:\n  pop\n  jump\t// out\ntag_4:\n  dataSize(sub_0)\n  dup1\n  dataOffset(sub_0)\n  0x00\n  codecopy\n  0x00\n  return\nstop\n\nsub_0: assembly {\n        /* \"MyContract.sol\":65:365  contract MyContract {... */\n      mstore(0x40, 0x80)\n      callvalue\n      dup1\n      iszero\n      tag_1\n      jumpi\n      0x00\n      dup1\n      revert\n    tag_1:\n      pop\n      jumpi(tag_2, lt(calldatasize, 0x04))\n      shr(0xe0, calldataload(0x00))\n      dup1\n      0x26eb4dbb\n      eq\n      tag_3\n      jumpi\n      dup1\n      0x3a5fbaaa\n      eq\n      tag_4\n      jumpi\n      dup1\n      0x5e383d21\n      eq\n      tag_5\n      jumpi\n      dup1\n      0xd3268fc1\n      eq\n      tag_6\n      jumpi\n    tag_2:\n      0x00\n      dup1\n      revert\n        /* \"MyContract.sol\":271:358  function valueCount() public view returns(uint) {... */\n    tag_3:\n      tag_7\n      tag_8\n      jump\t// in\n    tag_7:\n      mload(0x40)\n      tag_9\n      swap2\n      swap1\n      tag_10\n      jump\t// in\n    tag_9:\n      mload(0x40)\n      dup1\n      swap2\n      sub\n      swap1\n      return\n        /* \"MyContract.sol\":178:263  function addValue(string memory _value) public {... */\n    tag_4:\n      tag_11\n      0x04\n      dup1\n      calldatasize\n      sub\n      dup2\n      add\n      swap1\n      tag_12\n      swap2\n      swap1\n      tag_13\n      jump\t// in\n    tag_12:\n      tag_14\n      jump\t// in\n    tag_11:\n      stop\n        /* \"MyContract.sol\":92:114  string[] public values */\n    tag_5:\n      tag_15\n      0x04\n      dup1\n      calldatasize\n      sub\n      dup2\n      add\n      swap1\n      tag_16\n      swap2\n      swap1\n      tag_17\n      jump\t// in\n    tag_16:\n      tag_18\n      jump\t// in\n    tag_15:\n      mload(0x40)\n      tag_19\n      swap2\n      swap1\n      tag_20\n      jump\t// in\n    tag_19:\n      mload(0x40)\n      dup1\n      swap2\n      sub\n      swap1\n      return\n        /* \"MyContract.sol\":121:165  uint[][] public array2D = [[1,2,3], [4,5,6]] */\n    tag_6:\n      tag_21\n      0x04\n      dup1\n      calldatasize\n      sub\n      dup2\n      add\n      swap1\n      tag_22\n      swap2\n      swap1\n      tag_23\n      jump\t// in\n    tag_22:\n      tag_24\n      jump\t// in\n    tag_21:\n      mload(0x40)\n      tag_25\n      swap2\n      swap1\n      tag_10\n      jump\t// in\n    tag_25:\n      mload(0x40)\n      dup1\n      swap2\n      sub\n      swap1\n      return\n        /* \"MyContract.sol\":271:358  function valueCount() public view returns(uint) {... */\n    tag_8:\n        /* \"MyContract.sol\":313:317  uint */\n      0x00\n        /* \"MyContract.sol\":337:343  values */\n      dup1\n        /* \"MyContract.sol\":337:350  values.length */\n      dup1\n      sload\n      swap1\n      pop\n        /* \"MyContract.sol\":330:350  return values.length */\n      swap1\n      pop\n        /* \"MyContract.sol\":271:358  function valueCount() public view returns(uint) {... */\n      swap1\n      jump\t// out\n        /* \"MyContract.sol\":178:263  function addValue(string memory _value) public {... */\n    tag_14:\n        /* \"MyContract.sol\":236:242  values */\n      0x00\n        /* \"MyContract.sol\":248:254  _value */\n      dup2\n        /* \"MyContract.sol\":236:255  values.push(_value) */\n      swap1\n      dup1\n      0x01\n      dup2\n      sload\n      add\n      dup1\n      dup3\n      sstore\n      dup1\n      swap2\n      pop\n      pop\n      0x01\n      swap1\n      sub\n      swap1\n      0x00\n      mstore\n      keccak256(0x00, 0x20)\n      add\n      0x00\n      swap1\n      swap2\n      swap1\n      swap2\n      swap1\n      swap2\n      pop\n      swap1\n      dup2\n      tag_29\n      swap2\n      swap1\n      tag_30\n      jump\t// in\n    tag_29:\n      pop\n        /* \"MyContract.sol\":178:263  function addValue(string memory _value) public {... */\n      pop\n      jump\t// out\n        /* \"MyContract.sol\":92:114  string[] public values */\n    tag_18:\n      0x00\n      dup2\n      dup2\n      sload\n      dup2\n      lt\n      tag_31\n      jumpi\n      0x00\n      dup1\n      revert\n    tag_31:\n      swap1\n      0x00\n      mstore\n      keccak256(0x00, 0x20)\n      add\n      0x00\n      swap2\n      pop\n      swap1\n      pop\n      dup1\n      sload\n      tag_33\n      swap1\n      tag_34\n      jump\t// in\n    tag_33:\n      dup1\n      0x1f\n      add\n      0x20\n      dup1\n      swap2\n      div\n      mul\n      0x20\n      add\n      mload(0x40)\n      swap1\n      dup2\n      add\n      0x40\n      mstore\n      dup1\n      swap3\n      swap2\n      swap1\n      dup2\n      dup2\n      mstore\n      0x20\n      add\n      dup3\n      dup1\n      sload\n      tag_35\n      swap1\n      tag_34\n      jump\t// in\n    tag_35:\n      dup1\n      iszero\n      tag_36\n      jumpi\n      dup1\n      0x1f\n      lt\n      tag_37\n      jumpi\n      0x0100\n      dup1\n      dup4\n      sload\n      div\n      mul\n      dup4\n      mstore\n      swap2\n      0x20\n      add\n      swap2\n      jump(tag_36)\n    tag_37:\n      dup3\n      add\n      swap2\n      swap1\n      0x00\n      mstore\n      keccak256(0x00, 0x20)\n      swap1\n    tag_38:\n      dup2\n      sload\n      dup2\n      mstore\n      swap1\n      0x01\n      add\n      swap1\n      0x20\n      add\n      dup1\n      dup4\n      gt\n      tag_38\n      jumpi\n      dup3\n      swap1\n      sub\n      0x1f\n      and\n      dup3\n      add\n      swap2\n    tag_36:\n      pop\n      pop\n      pop\n      pop\n      pop\n      dup2\n      jump\t// out\n        /* \"MyContract.sol\":121:165  uint[][] public array2D = [[1,2,3], [4,5,6]] */\n    tag_24:\n      0x01\n      dup3\n      dup2\n      sload\n      dup2\n      lt\n      tag_39\n      jumpi\n      0x00\n      dup1\n      revert\n    tag_39:\n      swap1\n      0x00\n      mstore\n      keccak256(0x00, 0x20)\n      add\n      dup2\n      dup2\n      sload\n      dup2\n      lt\n      tag_41\n      jumpi\n      0x00\n      dup1\n      revert\n    tag_41:\n      swap1\n      0x00\n      mstore\n      keccak256(0x00, 0x20)\n      add\n      0x00\n      swap2\n      pop\n      swap2\n      pop\n      pop\n      sload\n      dup2\n      jump\t// out\n        /* \"#utility.yul\":7:84   */\n    tag_43:\n        /* \"#utility.yul\":44:51   */\n      0x00\n        /* \"#utility.yul\":73:78   */\n      dup2\n        /* \"#utility.yul\":62:78   */\n      swap1\n      pop\n        /* \"#utility.yul\":7:84   */\n      swap2\n      swap1\n      pop\n      jump\t// out\n        /* \"#utility.yul\":90:208   */\n    tag_44:\n        /* \"#utility.yul\":177:201   */\n      tag_83\n        /* \"#utility.yul\":195:200   */\n      dup2\n        /* \"#utility.yul\":177:201   */\n      tag_43\n      jump\t// in\n    tag_83:\n        /* \"#utility.yul\":172:175   */\n      dup3\n        /* \"#utility.yul\":165:202   */\n      mstore\n        /* \"#utility.yul\":90:208   */\n      pop\n      pop\n      jump\t// out\n        /* \"#utility.yul\":214:436   */\n    tag_10:\n        /* \"#utility.yul\":307:311   */\n      0x00\n        /* \"#utility.yul\":345:347   */\n      0x20\n        /* \"#utility.yul\":334:343   */\n      dup3\n        /* \"#utility.yul\":330:348   */\n      add\n        /* \"#utility.yul\":322:348   */\n      swap1\n      pop\n        /* \"#utility.yul\":358:429   */\n      tag_85\n        /* \"#utility.yul\":426:427   */\n      0x00\n        /* \"#utility.yul\":415:424   */\n      dup4\n        /* \"#utility.yul\":411:428   */\n      add\n        /* \"#utility.yul\":402:408   */\n      dup5\n        /* \"#utility.yul\":358:429   */\n      tag_44\n      jump\t// in\n    tag_85:\n        /* \"#utility.yul\":214:436   */\n      swap3\n      swap2\n      pop\n      pop\n      jump\t// out\n        /* \"#utility.yul\":442:517   */\n    tag_45:\n        /* \"#utility.yul\":475:481   */\n      0x00\n        /* \"#utility.yul\":508:510   */\n      0x40\n        /* \"#utility.yul\":502:511   */\n      mload\n        /* \"#utility.yul\":492:511   */\n      swap1\n      pop\n        /* \"#utility.yul\":442:517   */\n      swap1\n      jump\t// out\n        /* \"#utility.yul\":523:640   */\n    tag_46:\n        /* \"#utility.yul\":632:633   */\n      0x00\n        /* \"#utility.yul\":629:630   */\n      dup1\n        /* \"#utility.yul\":622:634   */\n      revert\n        /* \"#utility.yul\":646:763   */\n    tag_47:\n        /* \"#utility.yul\":755:756   */\n      0x00\n        /* \"#utility.yul\":752:753   */\n      dup1\n        /* \"#utility.yul\":745:757   */\n      revert\n        /* \"#utility.yul\":769:886   */\n    tag_48:\n        /* \"#utility.yul\":878:879   */\n      0x00\n        /* \"#utility.yul\":875:876   */\n      dup1\n        /* \"#utility.yul\":868:880   */\n      revert\n        /* \"#utility.yul\":892:1009   */\n    tag_49:\n        /* \"#utility.yul\":1001:1002   */\n      0x00\n        /* \"#utility.yul\":998:999   */\n      dup1\n        /* \"#utility.yul\":991:1003   */\n      revert\n        /* \"#utility.yul\":1015:1117   */\n    tag_50:\n        /* \"#utility.yul\":1056:1062   */\n      0x00\n        /* \"#utility.yul\":1107:1109   */\n      0x1f\n        /* \"#utility.yul\":1103:1110   */\n      not\n        /* \"#utility.yul\":1098:1100   */\n      0x1f\n        /* \"#utility.yul\":1091:1096   */\n      dup4\n        /* \"#utility.yul\":1087:1101   */\n      add\n        /* \"#utility.yul\":1083:1111   */\n      and\n        /* \"#utility.yul\":1073:1111   */\n      swap1\n      pop\n        /* \"#utility.yul\":1015:1117   */\n      swap2\n      swap1\n      pop\n      jump\t// out\n        /* \"#utility.yul\":1123:1303   */\n    tag_51:\n        /* \"#utility.yul\":1171:1248   */\n      0x4e487b7100000000000000000000000000000000000000000000000000000000\n        /* \"#utility.yul\":1168:1169   */\n      0x00\n        /* \"#utility.yul\":1161:1249   */\n      mstore\n        /* \"#utility.yul\":1268:1272   */\n      0x41\n        /* \"#utility.yul\":1265:1266   */\n      0x04\n        /* \"#utility.yul\":1258:1273   */\n      mstore\n        /* \"#utility.yul\":1292:1296   */\n      0x24\n        /* \"#utility.yul\":1289:1290   */\n      0x00\n        /* \"#utility.yul\":1282:1297   */\n      revert\n        /* \"#utility.yul\":1309:1590   */\n    tag_52:\n        /* \"#utility.yul\":1392:1419   */\n      tag_94\n        /* \"#utility.yul\":1414:1418   */\n      dup3\n        /* \"#utility.yul\":1392:1419   */\n      tag_50\n      jump\t// in\n    tag_94:\n        /* \"#utility.yul\":1384:1390   */\n      dup2\n        /* \"#utility.yul\":1380:1420   */\n      add\n        /* \"#utility.yul\":1522:1528   */\n      dup2\n        /* \"#utility.yul\":1510:1520   */\n      dup2\n        /* \"#utility.yul\":1507:1529   */\n      lt\n        /* \"#utility.yul\":1486:1504   */\n      0xffffffffffffffff\n        /* \"#utility.yul\":1474:1484   */\n      dup3\n        /* \"#utility.yul\":1471:1505   */\n      gt\n        /* \"#utility.yul\":1468:1530   */\n      or\n        /* \"#utility.yul\":1465:1553   */\n      iszero\n      tag_95\n      jumpi\n        /* \"#utility.yul\":1533:1551   */\n      tag_96\n      tag_51\n      jump\t// in\n    tag_96:\n        /* \"#utility.yul\":1465:1553   */\n    tag_95:\n        /* \"#utility.yul\":1573:1583   */\n      dup1\n        /* \"#utility.yul\":1569:1571   */\n      0x40\n        /* \"#utility.yul\":1562:1584   */\n      mstore\n        /* \"#utility.yul\":1352:1590   */\n      pop\n        /* \"#utility.yul\":1309:1590   */\n      pop\n      pop\n      jump\t// out\n        /* \"#utility.yul\":1596:1725   */\n    tag_53:\n        /* \"#utility.yul\":1630:1636   */\n      0x00\n        /* \"#utility.yul\":1657:1677   */\n      tag_98\n      tag_45\n      jump\t// in\n    tag_98:\n        /* \"#utility.yul\":1647:1677   */\n      swap1\n      pop\n        /* \"#utility.yul\":1686:1719   */\n      tag_99\n        /* \"#utility.yul\":1714:1718   */\n      dup3\n        /* \"#utility.yul\":1706:1712   */\n      dup3\n        /* \"#utility.yul\":1686:1719   */\n      tag_52\n      jump\t// in\n    tag_99:\n        /* \"#utility.yul\":1596:1725   */\n      swap2\n      swap1\n      pop\n      jump\t// out\n        /* \"#utility.yul\":1731:2039   */\n    tag_54:\n        /* \"#utility.yul\":1793:1797   */\n      0x00\n        /* \"#utility.yul\":1883:1901   */\n      0xffffffffffffffff\n        /* \"#utility.yul\":1875:1881   */\n      dup3\n        /* \"#utility.yul\":1872:1902   */\n      gt\n        /* \"#utility.yul\":1869:1925   */\n      iszero\n      tag_101\n      jumpi\n        /* \"#utility.yul\":1905:1923   */\n      tag_102\n      tag_51\n      jump\t// in\n    tag_102:\n        /* \"#utility.yul\":1869:1925   */\n    tag_101:\n        /* \"#utility.yul\":1943:1972   */\n      tag_103\n        /* \"#utility.yul\":1965:1971   */\n      dup3\n        /* \"#utility.yul\":1943:1972   */\n      tag_50\n      jump\t// in\n    tag_103:\n        /* \"#utility.yul\":1935:1972   */\n      swap1\n      pop\n        /* \"#utility.yul\":2027:2031   */\n      0x20\n        /* \"#utility.yul\":2021:2025   */\n      dup2\n        /* \"#utility.yul\":2017:2032   */\n      add\n        /* \"#utility.yul\":2009:2032   */\n      swap1\n      pop\n        /* \"#utility.yul\":1731:2039   */\n      swap2\n      swap1\n      pop\n      jump\t// out\n        /* \"#utility.yul\":2045:2199   */\n    tag_55:\n        /* \"#utility.yul\":2129:2135   */\n      dup3\n        /* \"#utility.yul\":2124:2127   */\n      dup2\n        /* \"#utility.yul\":2119:2122   */\n      dup4\n        /* \"#utility.yul\":2106:2136   */\n      calldatacopy\n        /* \"#utility.yul\":2191:2192   */\n      0x00\n        /* \"#utility.yul\":2182:2188   */\n      dup4\n        /* \"#utility.yul\":2177:2180   */\n      dup4\n        /* \"#utility.yul\":2173:2189   */\n      add\n        /* \"#utility.yul\":2166:2193   */\n      mstore\n        /* \"#utility.yul\":2045:2199   */\n      pop\n      pop\n      pop\n      jump\t// out\n        /* \"#utility.yul\":2205:2617   */\n    tag_56:\n        /* \"#utility.yul\":2283:2288   */\n      0x00\n        /* \"#utility.yul\":2308:2374   */\n      tag_106\n        /* \"#utility.yul\":2324:2373   */\n      tag_107\n        /* \"#utility.yul\":2366:2372   */\n      dup5\n        /* \"#utility.yul\":2324:2373   */\n      tag_54\n      jump\t// in\n    tag_107:\n        /* \"#utility.yul\":2308:2374   */\n      tag_53\n      jump\t// in\n    tag_106:\n        /* \"#utility.yul\":2299:2374   */\n      swap1\n      pop\n        /* \"#utility.yul\":2397:2403   */\n      dup3\n        /* \"#utility.yul\":2390:2395   */\n      dup2\n        /* \"#utility.yul\":2383:2404   */\n      mstore\n        /* \"#utility.yul\":2435:2439   */\n      0x20\n        /* \"#utility.yul\":2428:2433   */\n      dup2\n        /* \"#utility.yul\":2424:2440   */\n      add\n        /* \"#utility.yul\":2473:2476   */\n      dup5\n        /* \"#utility.yul\":2464:2470   */\n      dup5\n        /* \"#utility.yul\":2459:2462   */\n      dup5\n        /* \"#utility.yul\":2455:2471   */\n      add\n        /* \"#utility.yul\":2452:2477   */\n      gt\n        /* \"#utility.yul\":2449:2561   */\n      iszero\n      tag_108\n      jumpi\n        /* \"#utility.yul\":2480:2559   */\n      tag_109\n      tag_49\n      jump\t// in\n    tag_109:\n        /* \"#utility.yul\":2449:2561   */\n    tag_108:\n        /* \"#utility.yul\":2570:2611   */\n      tag_110\n        /* \"#utility.yul\":2604:2610   */\n      dup5\n        /* \"#utility.yul\":2599:2602   */\n      dup3\n        /* \"#utility.yul\":2594:2597   */\n      dup6\n        /* \"#utility.yul\":2570:2611   */\n      tag_55\n      jump\t// in\n    tag_110:\n        /* \"#utility.yul\":2289:2617   */\n      pop\n        /* \"#utility.yul\":2205:2617   */\n      swap4\n      swap3\n      pop\n      pop\n      pop\n      jump\t// out\n        /* \"#utility.yul\":2637:2977   */\n    tag_57:\n        /* \"#utility.yul\":2693:2698   */\n      0x00\n        /* \"#utility.yul\":2742:2745   */\n      dup3\n        /* \"#utility.yul\":2735:2739   */\n      0x1f\n        /* \"#utility.yul\":2727:2733   */\n      dup4\n        /* \"#utility.yul\":2723:2740   */\n      add\n        /* \"#utility.yul\":2719:2746   */\n      slt\n        /* \"#utility.yul\":2709:2831   */\n      tag_112\n      jumpi\n        /* \"#utility.yul\":2750:2829   */\n      tag_113\n      tag_48\n      jump\t// in\n    tag_113:\n        /* \"#utility.yul\":2709:2831   */\n    tag_112:\n        /* \"#utility.yul\":2867:2873   */\n      dup2\n        /* \"#utility.yul\":2854:2874   */\n      calldataload\n        /* \"#utility.yul\":2892:2971   */\n      tag_114\n        /* \"#utility.yul\":2967:2970   */\n      dup5\n        /* \"#utility.yul\":2959:2965   */\n      dup3\n        /* \"#utility.yul\":2952:2956   */\n      0x20\n        /* \"#utility.yul\":2944:2950   */\n      dup7\n        /* \"#utility.yul\":2940:2957   */\n      add\n        /* \"#utility.yul\":2892:2971   */\n      tag_56\n      jump\t// in\n    tag_114:\n        /* \"#utility.yul\":2883:2971   */\n      swap2\n      pop\n        /* \"#utility.yul\":2699:2977   */\n      pop\n        /* \"#utility.yul\":2637:2977   */\n      swap3\n      swap2\n      pop\n      pop\n      jump\t// out\n        /* \"#utility.yul\":2983:3492   */\n    tag_13:\n        /* \"#utility.yul\":3052:3058   */\n      0x00\n        /* \"#utility.yul\":3101:3103   */\n      0x20\n        /* \"#utility.yul\":3089:3098   */\n      dup3\n        /* \"#utility.yul\":3080:3087   */\n      dup5\n        /* \"#utility.yul\":3076:3099   */\n      sub\n        /* \"#utility.yul\":3072:3104   */\n      slt\n        /* \"#utility.yul\":3069:3188   */\n      iszero\n      tag_116\n      jumpi\n        /* \"#utility.yul\":3107:3186   */\n      tag_117\n      tag_46\n      jump\t// in\n    tag_117:\n        /* \"#utility.yul\":3069:3188   */\n    tag_116:\n        /* \"#utility.yul\":3255:3256   */\n      0x00\n        /* \"#utility.yul\":3244:3253   */\n      dup3\n        /* \"#utility.yul\":3240:3257   */\n      add\n        /* \"#utility.yul\":3227:3258   */\n      calldataload\n        /* \"#utility.yul\":3285:3303   */\n      0xffffffffffffffff\n        /* \"#utility.yul\":3277:3283   */\n      dup2\n        /* \"#utility.yul\":3274:3304   */\n      gt\n        /* \"#utility.yul\":3271:3388   */\n      iszero\n      tag_118\n      jumpi\n        /* \"#utility.yul\":3307:3386   */\n      tag_119\n      tag_47\n      jump\t// in\n    tag_119:\n        /* \"#utility.yul\":3271:3388   */\n    tag_118:\n        /* \"#utility.yul\":3412:3475   */\n      tag_120\n        /* \"#utility.yul\":3467:3474   */\n      dup5\n        /* \"#utility.yul\":3458:3464   */\n      dup3\n        /* \"#utility.yul\":3447:3456   */\n      dup6\n        /* \"#utility.yul\":3443:3465   */\n      add\n        /* \"#utility.yul\":3412:3475   */\n      tag_57\n      jump\t// in\n    tag_120:\n        /* \"#utility.yul\":3402:3475   */\n      swap2\n      pop\n        /* \"#utility.yul\":3198:3485   */\n      pop\n        /* \"#utility.yul\":2983:3492   */\n      swap3\n      swap2\n      pop\n      pop\n      jump\t// out\n        /* \"#utility.yul\":3498:3620   */\n    tag_58:\n        /* \"#utility.yul\":3571:3595   */\n      tag_122\n        /* \"#utility.yul\":3589:3594   */\n      dup2\n        /* \"#utility.yul\":3571:3595   */\n      tag_43\n      jump\t// in\n    tag_122:\n        /* \"#utility.yul\":3564:3569   */\n      dup2\n        /* \"#utility.yul\":3561:3596   */\n      eq\n        /* \"#utility.yul\":3551:3614   */\n      tag_123\n      jumpi\n        /* \"#utility.yul\":3610:3611   */\n      0x00\n        /* \"#utility.yul\":3607:3608   */\n      dup1\n        /* \"#utility.yul\":3600:3612   */\n      revert\n        /* \"#utility.yul\":3551:3614   */\n    tag_123:\n        /* \"#utility.yul\":3498:3620   */\n      pop\n      jump\t// out\n        /* \"#utility.yul\":3626:3765   */\n    tag_59:\n        /* \"#utility.yul\":3672:3677   */\n      0x00\n        /* \"#utility.yul\":3710:3716   */\n      dup2\n        /* \"#utility.yul\":3697:3717   */\n      calldataload\n        /* \"#utility.yul\":3688:3717   */\n      swap1\n      pop\n        /* \"#utility.yul\":3726:3759   */\n      tag_125\n        /* \"#utility.yul\":3753:3758   */\n      dup2\n        /* \"#utility.yul\":3726:3759   */\n      tag_58\n      jump\t// in\n    tag_125:\n        /* \"#utility.yul\":3626:3765   */\n      swap3\n      swap2\n      pop\n      pop\n      jump\t// out\n        /* \"#utility.yul\":3771:4100   */\n    tag_17:\n        /* \"#utility.yul\":3830:3836   */\n      0x00\n        /* \"#utility.yul\":3879:3881   */\n      0x20\n        /* \"#utility.yul\":3867:3876   */\n      dup3\n        /* \"#utility.yul\":3858:3865   */\n      dup5\n        /* \"#utility.yul\":3854:3877   */\n      sub\n        /* \"#utility.yul\":3850:3882   */\n      slt\n        /* \"#utility.yul\":3847:3966   */\n      iszero\n      tag_127\n      jumpi\n        /* \"#utility.yul\":3885:3964   */\n      tag_128\n      tag_46\n      jump\t// in\n    tag_128:\n        /* \"#utility.yul\":3847:3966   */\n    tag_127:\n        /* \"#utility.yul\":4005:4006   */\n      0x00\n        /* \"#utility.yul\":4030:4083   */\n      tag_129\n        /* \"#utility.yul\":4075:4082   */\n      dup5\n        /* \"#utility.yul\":4066:4072   */\n      dup3\n        /* \"#utility.yul\":4055:4064   */\n      dup6\n        /* \"#utility.yul\":4051:4073   */\n      add\n        /* \"#utility.yul\":4030:4083   */\n      tag_59\n      jump\t// in\n    tag_129:\n        /* \"#utility.yul\":4020:4083   */\n      swap2\n      pop\n        /* \"#utility.yul\":3976:4093   */\n      pop\n        /* \"#utility.yul\":3771:4100   */\n      swap3\n      swap2\n      pop\n      pop\n      jump\t// out\n        /* \"#utility.yul\":4106:4205   */\n    tag_60:\n        /* \"#utility.yul\":4158:4164   */\n      0x00\n        /* \"#utility.yul\":4192:4197   */\n      dup2\n        /* \"#utility.yul\":4186:4198   */\n      mload\n        /* \"#utility.yul\":4176:4198   */\n      swap1\n      pop\n        /* \"#utility.yul\":4106:4205   */\n      swap2\n      swap1\n      pop\n      jump\t// out\n        /* \"#utility.yul\":4211:4380   */\n    tag_61:\n        /* \"#utility.yul\":4295:4306   */\n      0x00\n        /* \"#utility.yul\":4329:4335   */\n      dup3\n        /* \"#utility.yul\":4324:4327   */\n      dup3\n        /* \"#utility.yul\":4317:4336   */\n      mstore\n        /* \"#utility.yul\":4369:4373   */\n      0x20\n        /* \"#utility.yul\":4364:4367   */\n      dup3\n        /* \"#utility.yul\":4360:4374   */\n      add\n        /* \"#utility.yul\":4345:4374   */\n      swap1\n      pop\n        /* \"#utility.yul\":4211:4380   */\n      swap3\n      swap2\n      pop\n      pop\n      jump\t// out\n        /* \"#utility.yul\":4386:4693   */\n    tag_62:\n        /* \"#utility.yul\":4454:4455   */\n      0x00\n        /* \"#utility.yul\":4464:4577   */\n    tag_133:\n        /* \"#utility.yul\":4478:4484   */\n      dup4\n        /* \"#utility.yul\":4475:4476   */\n      dup2\n        /* \"#utility.yul\":4472:4485   */\n      lt\n        /* \"#utility.yul\":4464:4577   */\n      iszero\n      tag_135\n      jumpi\n        /* \"#utility.yul\":4563:4564   */\n      dup1\n        /* \"#utility.yul\":4558:4561   */\n      dup3\n        /* \"#utility.yul\":4554:4565   */\n      add\n        /* \"#utility.yul\":4548:4566   */\n      mload\n        /* \"#utility.yul\":4544:4545   */\n      dup2\n        /* \"#utility.yul\":4539:4542   */\n      dup5\n        /* \"#utility.yul\":4535:4546   */\n      add\n        /* \"#utility.yul\":4528:4567   */\n      mstore\n        /* \"#utility.yul\":4500:4502   */\n      0x20\n        /* \"#utility.yul\":4497:4498   */\n      dup2\n        /* \"#utility.yul\":4493:4503   */\n      add\n        /* \"#utility.yul\":4488:4503   */\n      swap1\n      pop\n        /* \"#utility.yul\":4464:4577   */\n      jump(tag_133)\n    tag_135:\n        /* \"#utility.yul\":4595:4601   */\n      dup4\n        /* \"#utility.yul\":4592:4593   */\n      dup2\n        /* \"#utility.yul\":4589:4602   */\n      gt\n        /* \"#utility.yul\":4586:4687   */\n      iszero\n      tag_136\n      jumpi\n        /* \"#utility.yul\":4675:4676   */\n      0x00\n        /* \"#utility.yul\":4666:4672   */\n      dup5\n        /* \"#utility.yul\":4661:4664   */\n      dup5\n        /* \"#utility.yul\":4657:4673   */\n      add\n        /* \"#utility.yul\":4650:4677   */\n      mstore\n        /* \"#utility.yul\":4586:4687   */\n    tag_136:\n        /* \"#utility.yul\":4435:4693   */\n      pop\n        /* \"#utility.yul\":4386:4693   */\n      pop\n      pop\n      pop\n      jump\t// out\n        /* \"#utility.yul\":4699:5063   */\n    tag_63:\n        /* \"#utility.yul\":4787:4790   */\n      0x00\n        /* \"#utility.yul\":4815:4854   */\n      tag_138\n        /* \"#utility.yul\":4848:4853   */\n      dup3\n        /* \"#utility.yul\":4815:4854   */\n      tag_60\n      jump\t// in\n    tag_138:\n        /* \"#utility.yul\":4870:4941   */\n      tag_139\n        /* \"#utility.yul\":4934:4940   */\n      dup2\n        /* \"#utility.yul\":4929:4932   */\n      dup6\n        /* \"#utility.yul\":4870:4941   */\n      tag_61\n      jump\t// in\n    tag_139:\n        /* \"#utility.yul\":4863:4941   */\n      swap4\n      pop\n        /* \"#utility.yul\":4950:5002   */\n      tag_140\n        /* \"#utility.yul\":4995:5001   */\n      dup2\n        /* \"#utility.yul\":4990:4993   */\n      dup6\n        /* \"#utility.yul\":4983:4987   */\n      0x20\n        /* \"#utility.yul\":4976:4981   */\n      dup7\n        /* \"#utility.yul\":4972:4988   */\n      add\n        /* \"#utility.yul\":4950:5002   */\n      tag_62\n      jump\t// in\n    tag_140:\n        /* \"#utility.yul\":5027:5056   */\n      tag_141\n        /* \"#utility.yul\":5049:5055   */\n      dup2\n        /* \"#utility.yul\":5027:5056   */\n      tag_50\n      jump\t// in\n    tag_141:\n        /* \"#utility.yul\":5022:5025   */\n      dup5\n        /* \"#utility.yul\":5018:5057   */\n      add\n        /* \"#utility.yul\":5011:5057   */\n      swap2\n      pop\n        /* \"#utility.yul\":4791:5063   */\n      pop\n        /* \"#utility.yul\":4699:5063   */\n      swap3\n      swap2\n      pop\n      pop\n      jump\t// out\n        /* \"#utility.yul\":5069:5382   */\n    tag_20:\n        /* \"#utility.yul\":5182:5186   */\n      0x00\n        /* \"#utility.yul\":5220:5222   */\n      0x20\n        /* \"#utility.yul\":5209:5218   */\n      dup3\n        /* \"#utility.yul\":5205:5223   */\n      add\n        /* \"#utility.yul\":5197:5223   */\n      swap1\n      pop\n        /* \"#utility.yul\":5269:5278   */\n      dup2\n        /* \"#utility.yul\":5263:5267   */\n      dup2\n        /* \"#utility.yul\":5259:5279   */\n      sub\n        /* \"#utility.yul\":5255:5256   */\n      0x00\n        /* \"#utility.yul\":5244:5253   */\n      dup4\n        /* \"#utility.yul\":5240:5257   */\n      add\n        /* \"#utility.yul\":5233:5280   */\n      mstore\n        /* \"#utility.yul\":5297:5375   */\n      tag_143\n        /* \"#utility.yul\":5370:5374   */\n      dup2\n        /* \"#utility.yul\":5361:5367   */\n      dup5\n        /* \"#utility.yul\":5297:5375   */\n      tag_63\n      jump\t// in\n    tag_143:\n        /* \"#utility.yul\":5289:5375   */\n      swap1\n      pop\n        /* \"#utility.yul\":5069:5382   */\n      swap3\n      swap2\n      pop\n      pop\n      jump\t// out\n        /* \"#utility.yul\":5388:5862   */\n    tag_23:\n        /* \"#utility.yul\":5456:5462   */\n      0x00\n        /* \"#utility.yul\":5464:5470   */\n      dup1\n        /* \"#utility.yul\":5513:5515   */\n      0x40\n        /* \"#utility.yul\":5501:5510   */\n      dup4\n        /* \"#utility.yul\":5492:5499   */\n      dup6\n        /* \"#utility.yul\":5488:5511   */\n      sub\n        /* \"#utility.yul\":5484:5516   */\n      slt\n        /* \"#utility.yul\":5481:5600   */\n      iszero\n      tag_145\n      jumpi\n        /* \"#utility.yul\":5519:5598   */\n      tag_146\n      tag_46\n      jump\t// in\n    tag_146:\n        /* \"#utility.yul\":5481:5600   */\n    tag_145:\n        /* \"#utility.yul\":5639:5640   */\n      0x00\n        /* \"#utility.yul\":5664:5717   */\n      tag_147\n        /* \"#utility.yul\":5709:5716   */\n      dup6\n        /* \"#utility.yul\":5700:5706   */\n      dup3\n        /* \"#utility.yul\":5689:5698   */\n      dup7\n        /* \"#utility.yul\":5685:5707   */\n      add\n        /* \"#utility.yul\":5664:5717   */\n      tag_59\n      jump\t// in\n    tag_147:\n        /* \"#utility.yul\":5654:5717   */\n      swap3\n      pop\n        /* \"#utility.yul\":5610:5727   */\n      pop\n        /* \"#utility.yul\":5766:5768   */\n      0x20\n        /* \"#utility.yul\":5792:5845   */\n      tag_148\n        /* \"#utility.yul\":5837:5844   */\n      dup6\n        /* \"#utility.yul\":5828:5834   */\n      dup3\n        /* \"#utility.yul\":5817:5826   */\n      dup7\n        /* \"#utility.yul\":5813:5835   */\n      add\n        /* \"#utility.yul\":5792:5845   */\n      tag_59\n      jump\t// in\n    tag_148:\n        /* \"#utility.yul\":5782:5845   */\n      swap2\n      pop\n        /* \"#utility.yul\":5737:5855   */\n      pop\n        /* \"#utility.yul\":5388:5862   */\n      swap3\n      pop\n      swap3\n      swap1\n      pop\n      jump\t// out\n        /* \"#utility.yul\":5868:6048   */\n    tag_64:\n        /* \"#utility.yul\":5916:5993   */\n      0x4e487b7100000000000000000000000000000000000000000000000000000000\n        /* \"#utility.yul\":5913:5914   */\n      0x00\n        /* \"#utility.yul\":5906:5994   */\n      mstore\n        /* \"#utility.yul\":6013:6017   */\n      0x22\n        /* \"#utility.yul\":6010:6011   */\n      0x04\n        /* \"#utility.yul\":6003:6018   */\n      mstore\n        /* \"#utility.yul\":6037:6041   */\n      0x24\n        /* \"#utility.yul\":6034:6035   */\n      0x00\n        /* \"#utility.yul\":6027:6042   */\n      revert\n        /* \"#utility.yul\":6054:6374   */\n    tag_34:\n        /* \"#utility.yul\":6098:6104   */\n      0x00\n        /* \"#utility.yul\":6135:6136   */\n      0x02\n        /* \"#utility.yul\":6129:6133   */\n      dup3\n        /* \"#utility.yul\":6125:6137   */\n      div\n        /* \"#utility.yul\":6115:6137   */\n      swap1\n      pop\n        /* \"#utility.yul\":6182:6183   */\n      0x01\n        /* \"#utility.yul\":6176:6180   */\n      dup3\n        /* \"#utility.yul\":6172:6184   */\n      and\n        /* \"#utility.yul\":6203:6221   */\n      dup1\n        /* \"#utility.yul\":6193:6274   */\n      tag_151\n      jumpi\n        /* \"#utility.yul\":6259:6263   */\n      0x7f\n        /* \"#utility.yul\":6251:6257   */\n      dup3\n        /* \"#utility.yul\":6247:6264   */\n      and\n        /* \"#utility.yul\":6237:6264   */\n      swap2\n      pop\n        /* \"#utility.yul\":6193:6274   */\n    tag_151:\n        /* \"#utility.yul\":6321:6323   */\n      0x20\n        /* \"#utility.yul\":6313:6319   */\n      dup3\n        /* \"#utility.yul\":6310:6324   */\n      lt\n        /* \"#utility.yul\":6290:6308   */\n      dup2\n        /* \"#utility.yul\":6287:6325   */\n      sub\n        /* \"#utility.yul\":6284:6368   */\n      tag_152\n      jumpi\n        /* \"#utility.yul\":6340:6358   */\n      tag_153\n      tag_64\n      jump\t// in\n    tag_153:\n        /* \"#utility.yul\":6284:6368   */\n    tag_152:\n        /* \"#utility.yul\":6105:6374   */\n      pop\n        /* \"#utility.yul\":6054:6374   */\n      swap2\n      swap1\n      pop\n      jump\t// out\n        /* \"#utility.yul\":6380:6521   */\n    tag_65:\n        /* \"#utility.yul\":6429:6433   */\n      0x00\n        /* \"#utility.yul\":6452:6455   */\n      dup2\n        /* \"#utility.yul\":6444:6455   */\n      swap1\n      pop\n        /* \"#utility.yul\":6475:6478   */\n      dup2\n        /* \"#utility.yul\":6472:6473   */\n      0x00\n        /* \"#utility.yul\":6465:6479   */\n      mstore\n        /* \"#utility.yul\":6509:6513   */\n      0x20\n        /* \"#utility.yul\":6506:6507   */\n      0x00\n        /* \"#utility.yul\":6496:6514   */\n      keccak256\n        /* \"#utility.yul\":6488:6514   */\n      swap1\n      pop\n        /* \"#utility.yul\":6380:6521   */\n      swap2\n      swap1\n      pop\n      jump\t// out\n        /* \"#utility.yul\":6527:6620   */\n    tag_66:\n        /* \"#utility.yul\":6564:6570   */\n      0x00\n        /* \"#utility.yul\":6611:6613   */\n      0x20\n        /* \"#utility.yul\":6606:6608   */\n      0x1f\n        /* \"#utility.yul\":6599:6604   */\n      dup4\n        /* \"#utility.yul\":6595:6609   */\n      add\n        /* \"#utility.yul\":6591:6614   */\n      div\n        /* \"#utility.yul\":6581:6614   */\n      swap1\n      pop\n        /* \"#utility.yul\":6527:6620   */\n      swap2\n      swap1\n      pop\n      jump\t// out\n        /* \"#utility.yul\":6626:6733   */\n    tag_67:\n        /* \"#utility.yul\":6670:6678   */\n      0x00\n        /* \"#utility.yul\":6720:6725   */\n      dup3\n        /* \"#utility.yul\":6714:6718   */\n      dup3\n        /* \"#utility.yul\":6710:6726   */\n      shl\n        /* \"#utility.yul\":6689:6726   */\n      swap1\n      pop\n        /* \"#utility.yul\":6626:6733   */\n      swap3\n      swap2\n      pop\n      pop\n      jump\t// out\n        /* \"#utility.yul\":6739:7132   */\n    tag_68:\n        /* \"#utility.yul\":6808:6814   */\n      0x00\n        /* \"#utility.yul\":6858:6859   */\n      0x08\n        /* \"#utility.yul\":6846:6856   */\n      dup4\n        /* \"#utility.yul\":6842:6860   */\n      mul\n        /* \"#utility.yul\":6881:6978   */\n      tag_158\n        /* \"#utility.yul\":6911:6977   */\n      0xffffffffffffffffffffffffffffffffffffffffffffffffffffffffffffffff\n        /* \"#utility.yul\":6900:6909   */\n      dup3\n        /* \"#utility.yul\":6881:6978   */\n      tag_67\n      jump\t// in\n    tag_158:\n        /* \"#utility.yul\":6999:7038   */\n      tag_159\n        /* \"#utility.yul\":7029:7037   */\n      dup7\n        /* \"#utility.yul\":7018:7027   */\n      dup4\n        /* \"#utility.yul\":6999:7038   */\n      tag_67\n      jump\t// in\n    tag_159:\n        /* \"#utility.yul\":6987:7038   */\n      swap6\n      pop\n        /* \"#utility.yul\":7071:7075   */\n      dup1\n        /* \"#utility.yul\":7067:7076   */\n      not\n        /* \"#utility.yul\":7060:7065   */\n      dup5\n        /* \"#utility.yul\":7056:7077   */\n      and\n        /* \"#utility.yul\":7047:7077   */\n      swap4\n      pop\n        /* \"#utility.yul\":7120:7124   */\n      dup1\n        /* \"#utility.yul\":7110:7118   */\n      dup7\n        /* \"#utility.yul\":7106:7125   */\n      and\n        /* \"#utility.yul\":7099:7104   */\n      dup5\n        /* \"#utility.yul\":7096:7126   */\n      or\n        /* \"#utility.yul\":7086:7126   */\n      swap3\n      pop\n        /* \"#utility.yul\":6815:7132   */\n      pop\n      pop\n        /* \"#utility.yul\":6739:7132   */\n      swap4\n      swap3\n      pop\n      pop\n      pop\n      jump\t// out\n        /* \"#utility.yul\":7138:7198   */\n    tag_69:\n        /* \"#utility.yul\":7166:7169   */\n      0x00\n        /* \"#utility.yul\":7187:7192   */\n      dup2\n        /* \"#utility.yul\":7180:7192   */\n      swap1\n      pop\n        /* \"#utility.yul\":7138:7198   */\n      swap2\n      swap1\n      pop\n      jump\t// out\n        /* \"#utility.yul\":7204:7346   */\n    tag_70:\n        /* \"#utility.yul\":7254:7263   */\n      0x00\n        /* \"#utility.yul\":7287:7340   */\n      tag_162\n        /* \"#utility.yul\":7305:7339   */\n      tag_163\n        /* \"#utility.yul\":7314:7338   */\n      tag_164\n        /* \"#utility.yul\":7332:7337   */\n      dup5\n        /* \"#utility.yul\":7314:7338   */\n      tag_43\n      jump\t// in\n    tag_164:\n        /* \"#utility.yul\":7305:7339   */\n      tag_69\n      jump\t// in\n    tag_163:\n        /* \"#utility.yul\":7287:7340   */\n      tag_43\n      jump\t// in\n    tag_162:\n        /* \"#utility.yul\":7274:7340   */\n      swap1\n      pop\n        /* \"#utility.yul\":7204:7346   */\n      swap2\n      swap1\n      pop\n      jump\t// out\n        /* \"#utility.yul\":7352:7427   */\n    tag_71:\n        /* \"#utility.yul\":7395:7398   */\n      0x00\n        /* \"#utility.yul\":7416:7421   */\n      dup2\n        /* \"#utility.yul\":7409:7421   */\n      swap1\n      pop\n        /* \"#utility.yul\":7352:7427   */\n      swap2\n      swap1\n      pop\n      jump\t// out\n        /* \"#utility.yul\":7433:7702   */\n    tag_72:\n        /* \"#utility.yul\":7543:7582   */\n      tag_167\n        /* \"#utility.yul\":7574:7581   */\n      dup4\n        /* \"#utility.yul\":7543:7582   */\n      tag_70\n      jump\t// in\n    tag_167:\n        /* \"#utility.yul\":7604:7695   */\n      tag_168\n        /* \"#utility.yul\":7653:7694   */\n      tag_169\n        /* \"#utility.yul\":7677:7693   */\n      dup3\n        /* \"#utility.yul\":7653:7694   */\n      tag_71\n      jump\t// in\n    tag_169:\n        /* \"#utility.yul\":7645:7651   */\n      dup5\n        /* \"#utility.yul\":7638:7642   */\n      dup5\n        /* \"#utility.yul\":7632:7643   */\n      sload\n        /* \"#utility.yul\":7604:7695   */\n      tag_68\n      jump\t// in\n    tag_168:\n        /* \"#utility.yul\":7598:7602   */\n      dup3\n        /* \"#utility.yul\":7591:7696   */\n      sstore\n        /* \"#utility.yul\":7509:7702   */\n      pop\n        /* \"#utility.yul\":7433:7702   */\n      pop\n      pop\n      pop\n      jump\t// out\n        /* \"#utility.yul\":7708:7781   */\n    tag_73:\n        /* \"#utility.yul\":7753:7756   */\n      0x00\n        /* \"#utility.yul\":7708:7781   */\n      swap1\n      jump\t// out\n        /* \"#utility.yul\":7787:7976   */\n    tag_74:\n        /* \"#utility.yul\":7864:7896   */\n      tag_172\n      tag_73\n      jump\t// in\n    tag_172:\n        /* \"#utility.yul\":7905:7970   */\n      tag_173\n        /* \"#utility.yul\":7963:7969   */\n      dup2\n        /* \"#utility.yul\":7955:7961   */\n      dup5\n        /* \"#utility.yul\":7949:7953   */\n      dup5\n        /* \"#utility.yul\":7905:7970   */\n      tag_72\n      jump\t// in\n    tag_173:\n        /* \"#utility.yul\":7840:7976   */\n      pop\n        /* \"#utility.yul\":7787:7976   */\n      pop\n      pop\n      jump\t// out\n        /* \"#utility.yul\":7982:8168   */\n    tag_75:\n        /* \"#utility.yul\":8042:8162   */\n    tag_175:\n        /* \"#utility.yul\":8059:8062   */\n      dup2\n        /* \"#utility.yul\":8052:8057   */\n      dup2\n        /* \"#utility.yul\":8049:8063   */\n      lt\n        /* \"#utility.yul\":8042:8162   */\n      iszero\n      tag_177\n      jumpi\n        /* \"#utility.yul\":8113:8152   */\n      tag_178\n        /* \"#utility.yul\":8150:8151   */\n      0x00\n        /* \"#utility.yul\":8143:8148   */\n      dup3\n        /* \"#utility.yul\":8113:8152   */\n      tag_74\n      jump\t// in\n    tag_178:\n        /* \"#utility.yul\":8086:8087   */\n      0x01\n        /* \"#utility.yul\":8079:8084   */\n      dup2\n        /* \"#utility.yul\":8075:8088   */\n      add\n        /* \"#utility.yul\":8066:8088   */\n      swap1\n      pop\n        /* \"#utility.yul\":8042:8162   */\n      jump(tag_175)\n    tag_177:\n        /* \"#utility.yul\":7982:8168   */\n      pop\n      pop\n      jump\t// out\n        /* \"#utility.yul\":8174:8717   */\n    tag_76:\n        /* \"#utility.yul\":8275:8277   */\n      0x1f\n        /* \"#utility.yul\":8270:8273   */\n      dup3\n        /* \"#utility.yul\":8267:8278   */\n      gt\n        /* \"#utility.yul\":8264:8710   */\n      iszero\n      tag_180\n      jumpi\n        /* \"#utility.yul\":8309:8347   */\n      tag_181\n        /* \"#utility.yul\":8341:8346   */\n      dup2\n        /* \"#utility.yul\":8309:8347   */\n      tag_65\n      jump\t// in\n    tag_181:\n        /* \"#utility.yul\":8393:8422   */\n      tag_182\n        /* \"#utility.yul\":8411:8421   */\n      dup5\n        /* \"#utility.yul\":8393:8422   */\n      tag_66\n      jump\t// in\n    tag_182:\n        /* \"#utility.yul\":8383:8391   */\n      dup2\n        /* \"#utility.yul\":8379:8423   */\n      add\n        /* \"#utility.yul\":8576:8578   */\n      0x20\n        /* \"#utility.yul\":8564:8574   */\n      dup6\n        /* \"#utility.yul\":8561:8579   */\n      lt\n        /* \"#utility.yul\":8558:8607   */\n      iszero\n      tag_183\n      jumpi\n        /* \"#utility.yul\":8597:8605   */\n      dup2\n        /* \"#utility.yul\":8582:8605   */\n      swap1\n      pop\n        /* \"#utility.yul\":8558:8607   */\n    tag_183:\n        /* \"#utility.yul\":8620:8700   */\n      tag_184\n        /* \"#utility.yul\":8676:8698   */\n      tag_185\n        /* \"#utility.yul\":8694:8697   */\n      dup6\n        /* \"#utility.yul\":8676:8698   */\n      tag_66\n      jump\t// in\n    tag_185:\n        /* \"#utility.yul\":8666:8674   */\n      dup4\n        /* \"#utility.yul\":8662:8699   */\n      add\n        /* \"#utility.yul\":8649:8660   */\n      dup3\n        /* \"#utility.yul\":8620:8700   */\n      tag_75\n      jump\t// in\n    tag_184:\n        /* \"#utility.yul\":8279:8710   */\n      pop\n      pop\n        /* \"#utility.yul\":8264:8710   */\n    tag_180:\n        /* \"#utility.yul\":8174:8717   */\n      pop\n      pop\n      pop\n      jump\t// out\n        /* \"#utility.yul\":8723:8840   */\n    tag_77:\n        /* \"#utility.yul\":8777:8785   */\n      0x00\n        /* \"#utility.yul\":8827:8832   */\n      dup3\n        /* \"#utility.yul\":8821:8825   */\n      dup3\n        /* \"#utility.yul\":8817:8833   */\n      shr\n        /* \"#utility.yul\":8796:8833   */\n      swap1\n      pop\n        /* \"#utility.yul\":8723:8840   */\n      swap3\n      swap2\n      pop\n      pop\n      jump\t// out\n        /* \"#utility.yul\":8846:9015   */\n    tag_78:\n        /* \"#utility.yul\":8890:8896   */\n      0x00\n        /* \"#utility.yul\":8923:8974   */\n      tag_188\n        /* \"#utility.yul\":8971:8972   */\n      0x00\n        /* \"#utility.yul\":8967:8973   */\n      not\n        /* \"#utility.yul\":8959:8964   */\n      dup5\n        /* \"#utility.yul\":8956:8957   */\n      0x08\n        /* \"#utility.yul\":8952:8965   */\n      mul\n        /* \"#utility.yul\":8923:8974   */\n      tag_77\n      jump\t// in\n    tag_188:\n        /* \"#utility.yul\":8919:8975   */\n      not\n        /* \"#utility.yul\":9004:9008   */\n      dup1\n        /* \"#utility.yul\":8998:9002   */\n      dup4\n        /* \"#utility.yul\":8994:9009   */\n      and\n        /* \"#utility.yul\":8984:9009   */\n      swap2\n      pop\n        /* \"#utility.yul\":8897:9015   */\n      pop\n        /* \"#utility.yul\":8846:9015   */\n      swap3\n      swap2\n      pop\n      pop\n      jump\t// out\n        /* \"#utility.yul\":9020:9315   */\n    tag_79:\n        /* \"#utility.yul\":9096:9100   */\n      0x00\n        /* \"#utility.yul\":9242:9271   */\n      tag_190\n        /* \"#utility.yul\":9267:9270   */\n      dup4\n        /* \"#utility.yul\":9261:9265   */\n      dup4\n        /* \"#utility.yul\":9242:9271   */\n      tag_78\n      jump\t// in\n    tag_190:\n        /* \"#utility.yul\":9234:9271   */\n      swap2\n      pop\n        /* \"#utility.yul\":9304:9307   */\n      dup3\n        /* \"#utility.yul\":9301:9302   */\n      0x02\n        /* \"#utility.yul\":9297:9308   */\n      mul\n        /* \"#utility.yul\":9291:9295   */\n      dup3\n        /* \"#utility.yul\":9288:9309   */\n      or\n        /* \"#utility.yul\":9280:9309   */\n      swap1\n      pop\n        /* \"#utility.yul\":9020:9315   */\n      swap3\n      swap2\n      pop\n      pop\n      jump\t// out\n        /* \"#utility.yul\":9320:10715   */\n    tag_30:\n        /* \"#utility.yul\":9437:9474   */\n      tag_192\n        /* \"#utility.yul\":9470:9473   */\n      dup3\n        /* \"#utility.yul\":9437:9474   */\n      tag_60\n      jump\t// in\n    tag_192:\n        /* \"#utility.yul\":9539:9557   */\n      0xffffffffffffffff\n        /* \"#utility.yul\":9531:9537   */\n      dup2\n        /* \"#utility.yul\":9528:9558   */\n      gt\n        /* \"#utility.yul\":9525:9581   */\n      iszero\n      tag_193\n      jumpi\n        /* \"#utility.yul\":9561:9579   */\n      tag_194\n      tag_51\n      jump\t// in\n    tag_194:\n        /* \"#utility.yul\":9525:9581   */\n    tag_193:\n        /* \"#utility.yul\":9605:9643   */\n      tag_195\n        /* \"#utility.yul\":9637:9641   */\n      dup3\n        /* \"#utility.yul\":9631:9642   */\n      sload\n        /* \"#utility.yul\":9605:9643   */\n      tag_34\n      jump\t// in\n    tag_195:\n        /* \"#utility.yul\":9690:9757   */\n      tag_196\n        /* \"#utility.yul\":9750:9756   */\n      dup3\n        /* \"#utility.yul\":9742:9748   */\n      dup3\n        /* \"#utility.yul\":9736:9740   */\n      dup6\n        /* \"#utility.yul\":9690:9757   */\n      tag_76\n      jump\t// in\n    tag_196:\n        /* \"#utility.yul\":9784:9785   */\n      0x00\n        /* \"#utility.yul\":9808:9812   */\n      0x20\n        /* \"#utility.yul\":9795:9812   */\n      swap1\n      pop\n        /* \"#utility.yul\":9840:9842   */\n      0x1f\n        /* \"#utility.yul\":9832:9838   */\n      dup4\n        /* \"#utility.yul\":9829:9843   */\n      gt\n        /* \"#utility.yul\":9857:9858   */\n      0x01\n        /* \"#utility.yul\":9852:10470   */\n      dup2\n      eq\n      tag_198\n      jumpi\n        /* \"#utility.yul\":10514:10515   */\n      0x00\n        /* \"#utility.yul\":10531:10537   */\n      dup5\n        /* \"#utility.yul\":10528:10605   */\n      iszero\n      tag_199\n      jumpi\n        /* \"#utility.yul\":10580:10589   */\n      dup3\n        /* \"#utility.yul\":10575:10578   */\n      dup8\n        /* \"#utility.yul\":10571:10590   */\n      add\n        /* \"#utility.yul\":10565:10591   */\n      mload\n        /* \"#utility.yul\":10556:10591   */\n      swap1\n      pop\n        /* \"#utility.yul\":10528:10605   */\n    tag_199:\n        /* \"#utility.yul\":10631:10698   */\n      tag_200\n        /* \"#utility.yul\":10691:10697   */\n      dup6\n        /* \"#utility.yul\":10684:10689   */\n      dup3\n        /* \"#utility.yul\":10631:10698   */\n      tag_79\n      jump\t// in\n    tag_200:\n        /* \"#utility.yul\":10625:10629   */\n      dup7\n        /* \"#utility.yul\":10618:10699   */\n      sstore\n        /* \"#utility.yul\":10487:10709   */\n      pop\n        /* \"#utility.yul\":9822:10709   */\n      jump(tag_197)\n        /* \"#utility.yul\":9852:10470   */\n    tag_198:\n        /* \"#utility.yul\":9904:9908   */\n      0x1f\n        /* \"#utility.yul\":9900:9909   */\n      not\n        /* \"#utility.yul\":9892:9898   */\n      dup5\n        /* \"#utility.yul\":9888:9910   */\n      and\n        /* \"#utility.yul\":9938:9975   */\n      tag_201\n        /* \"#utility.yul\":9970:9974   */\n      dup7\n        /* \"#utility.yul\":9938:9975   */\n      tag_65\n      jump\t// in\n    tag_201:\n        /* \"#utility.yul\":9997:9998   */\n      0x00\n        /* \"#utility.yul\":10011:10219   */\n    tag_202:\n        /* \"#utility.yul\":10025:10032   */\n      dup3\n        /* \"#utility.yul\":10022:10023   */\n      dup2\n        /* \"#utility.yul\":10019:10033   */\n      lt\n        /* \"#utility.yul\":10011:10219   */\n      iszero\n      tag_204\n      jumpi\n        /* \"#utility.yul\":10104:10113   */\n      dup5\n        /* \"#utility.yul\":10099:10102   */\n      dup10\n        /* \"#utility.yul\":10095:10114   */\n      add\n        /* \"#utility.yul\":10089:10115   */\n      mload\n        /* \"#utility.yul\":10081:10087   */\n      dup3\n        /* \"#utility.yul\":10074:10116   */\n      sstore\n        /* \"#utility.yul\":10155:10156   */\n      0x01\n        /* \"#utility.yul\":10147:10153   */\n      dup3\n        /* \"#utility.yul\":10143:10157   */\n      add\n        /* \"#utility.yul\":10133:10157   */\n      swap2\n      pop\n        /* \"#utility.yul\":10202:10204   */\n      0x20\n        /* \"#utility.yul\":10191:10200   */\n      dup6\n        /* \"#utility.yul\":10187:10205   */\n      add\n        /* \"#utility.yul\":10174:10205   */\n      swap5\n      pop\n        /* \"#utility.yul\":10048:10052   */\n      0x20\n        /* \"#utility.yul\":10045:10046   */\n      dup2\n        /* \"#utility.yul\":10041:10053   */\n      add\n        /* \"#utility.yul\":10036:10053   */\n      swap1\n      pop\n        /* \"#utility.yul\":10011:10219   */\n      jump(tag_202)\n    tag_204:\n        /* \"#utility.yul\":10247:10253   */\n      dup7\n        /* \"#utility.yul\":10238:10245   */\n      dup4\n        /* \"#utility.yul\":10235:10254   */\n      lt\n        /* \"#utility.yul\":10232:10411   */\n      iszero\n      tag_205\n      jumpi\n        /* \"#utility.yul\":10305:10314   */\n      dup5\n        /* \"#utility.yul\":10300:10303   */\n      dup10\n        /* \"#utility.yul\":10296:10315   */\n      add\n        /* \"#utility.yul\":10290:10316   */\n      mload\n        /* \"#utility.yul\":10348:10396   */\n      tag_206\n        /* \"#utility.yul\":10390:10394   */\n      0x1f\n        /* \"#utility.yul\":10382:10388   */\n      dup10\n        /* \"#utility.yul\":10378:10395   */\n      and\n        /* \"#utility.yul\":10367:10376   */\n      dup3\n        /* \"#utility.yul\":10348:10396   */\n      tag_78\n      jump\t// in\n    tag_206:\n        /* \"#utility.yul\":10340:10346   */\n      dup4\n        /* \"#utility.yul\":10333:10397   */\n      sstore\n        /* \"#utility.yul\":10255:10411   */\n      pop\n        /* \"#utility.yul\":10232:10411   */\n    tag_205:\n        /* \"#utility.yul\":10457:10458   */\n      0x01\n        /* \"#utility.yul\":10453:10454   */\n      0x02\n        /* \"#utility.yul\":10445:10451   */\n      dup9\n        /* \"#utility.yul\":10441:10455   */\n      mul\n        /* \"#utility.yul\":10437:10459   */\n      add\n        /* \"#utility.yul\":10431:10435   */\n      dup9\n        /* \"#utility.yul\":10424:10460   */\n      sstore\n        /* \"#utility.yul\":9859:10470   */\n      pop\n      pop\n      pop\n        /* \"#utility.yul\":9822:10709   */\n    tag_197:\n      pop\n        /* \"#utility.yul\":9412:10715   */\n      pop\n      pop\n      pop\n        /* \"#utility.yul\":9320:10715   */\n      pop\n      pop\n      jump\t// out\n\n    auxdata: 0xa264697066735822122056725732ef774287c9c396c8665a6c45a724e2842da56ad771b9ad393e8dfba464736f6c634300080f0033\n}\n",
				"bytecode": {
					"linkReferences": {},
					"object": "608060405260405180604001604052806040518060600160405280600160ff168152602001600260ff168152602001600360ff1681525081526020016040518060600160405280600460ff168152602001600560ff168152602001600660ff168152508152506001906002610075929190610088565b5034801561008257600080fd5b50610197565b8280548282559060005260206000209081019282156100d2579160200282015b828111156100d1578251829060036100c19291906100e3565b50916020019190600101906100a8565b5b5090506100df9190610135565b5090565b828054828255906000526020600020908101928215610124579160200282015b82811115610123578251829060ff16905591602001919060010190610103565b5b5090506101319190610159565b5090565b5b80821115610155576000818161014c9190610176565b50600101610136565b5090565b5b8082111561017257600081600090555060010161015a565b5090565b50805460008255906000526020600020908101906101949190610159565b50565b610846806101a66000396000f3fe608060405234801561001057600080fd5b506004361061004c5760003560e01c806326eb4dbb146100515780633a5fbaaa1461006f5780635e383d211461008b578063d3268fc1146100bb575b600080fd5b6100596100eb565b6040516100669190610231565b60405180910390f35b610089600480360381019061008491906103a6565b6100f7565b005b6100a560048036038101906100a0919061041b565b61012f565b6040516100b291906104d0565b60405180910390f35b6100d560048036038101906100d091906104f2565b6101db565b6040516100e29190610231565b60405180910390f35b60008080549050905090565b60008190806001815401808255809150506001900390600052602060002001600090919091909150908161012b919061073e565b5050565b6000818154811061013f57600080fd5b90600052602060002001600091509050805461015a90610561565b80601f016020809104026020016040519081016040528092919081815260200182805461018690610561565b80156101d35780601f106101a8576101008083540402835291602001916101d3565b820191906000526020600020905b8154815290600101906020018083116101b657829003601f168201915b505050505081565b600182815481106101eb57600080fd5b90600052602060002001818154811061020357600080fd5b90600052602060002001600091509150505481565b6000819050919050565b61022b81610218565b82525050565b60006020820190506102466000830184610222565b92915050565b6000604051905090565b600080fd5b600080fd5b600080fd5b600080fd5b6000601f19601f8301169050919050565b7f4e487b7100000000000000000000000000000000000000000000000000000000600052604160045260246000fd5b6102b38261026a565b810181811067ffffffffffffffff821117156102d2576102d161027b565b5b80604052505050565b60006102e561024c565b90506102f182826102aa565b919050565b600067ffffffffffffffff8211156103115761031061027b565b5b61031a8261026a565b9050602081019050919050565b82818337600083830152505050565b6000610349610344846102f6565b6102db565b90508281526020810184848401111561036557610364610265565b5b610370848285610327565b509392505050565b600082601f83011261038d5761038c610260565b5b813561039d848260208601610336565b91505092915050565b6000602082840312156103bc576103bb610256565b5b600082013567ffffffffffffffff8111156103da576103d961025b565b5b6103e684828501610378565b91505092915050565b6103f881610218565b811461040357600080fd5b50565b600081359050610415816103ef565b92915050565b60006020828403121561043157610430610256565b5b600061043f84828501610406565b91505092915050565b600081519050919050565b600082825260208201905092915050565b60005b83811015610482578082015181840152602081019050610467565b83811115610491576000848401525b50505050565b60006104a282610448565b6104ac8185610453565b93506104bc818560208601610464565b6104c58161026a565b840191505092915050565b600060208201905081810360008301526104ea8184610497565b905092915050565b6000806040838503121561050957610508610256565b5b600061051785828601610406565b925050602061052885828601610406565b9150509250929050565b7f4e487b7100000000000000000000000000000000000000000000000000000000600052602260045260246000fd5b6000600282049050600182168061057957607f821691505b60208210810361058c5761058b610532565b5b50919050565b60008190508160005260206000209050919050565b60006020601f8301049050919050565b600082821b905092915050565b6000600883026105f47fffffffffffffffffffffffffffffffffffffffffffffffffffffffffffffffff826105b7565b6105fe86836105b7565b95508019841693508086168417925050509392505050565b6000819050919050565b600061063b61063661063184610218565b610616565b610218565b9050919050565b6000819050919050565b61065583610620565b61066961066182610642565b8484546105c4565b825550505050565b600090565b61067e610671565b61068981848461064c565b505050565b5b818110156106ad576106a2600082610676565b60018101905061068f565b5050565b601f8211156106f2576106c381610592565b6106cc846105a7565b810160208510156106db578190505b6106ef6106e7856105a7565b83018261068e565b50505b505050565b600082821c905092915050565b6000610715600019846008026106f7565b1980831691505092915050565b600061072e8383610704565b9150826002028217905092915050565b61074782610448565b67ffffffffffffffff8111156107605761075f61027b565b5b61076a8254610561565b6107758282856106b1565b600060209050601f8311600181146107a85760008415610796578287015190505b6107a08582610722565b865550610808565b601f1984166107b686610592565b60005b828110156107de578489015182556001820191506020850194506020810190506107b9565b868310156107fb57848901516107f7601f891682610704565b8355505b6001600288020188555050505b50505050505056fea264697066735822122056725732ef774287c9c396c8665a6c45a724e2842da56ad771b9ad393e8dfba464736f6c634300080f0033",
					"opcodes": "PUSH1 0x80 PUSH1 0x40 MSTORE PUSH1 0x40 MLOAD DUP1 PUSH1 0x40 ADD PUSH1 0x40 MSTORE DUP1 PUSH1 0x40 MLOAD DUP1 PUSH1 0x60 ADD PUSH1 0x40 MSTORE DUP1 PUSH1 0x1 PUSH1 0xFF AND DUP2 MSTORE PUSH1 0x20 ADD PUSH1 0x2 PUSH1 0xFF AND DUP2 MSTORE PUSH1 0x20 ADD PUSH1 0x3 PUSH1 0xFF AND DUP2 MSTORE POP DUP2 MSTORE PUSH1 0x20 ADD PUSH1 0x40 MLOAD DUP1 PUSH1 0x60 ADD PUSH1 0x40 MSTORE DUP1 PUSH1 0x4 PUSH1 0xFF AND DUP2 MSTORE PUSH1 0x20 ADD PUSH1 0x5 PUSH1 0xFF AND DUP2 MSTORE PUSH1 0x20 ADD PUSH1 0x6 PUSH1 0xFF AND DUP2 MSTORE POP DUP2 MSTORE POP PUSH1 0x1 SWAP1 PUSH1 0x2 PUSH2 0x75 SWAP3 SWAP2 SWAP1 PUSH2 0x88 JUMP JUMPDEST POP CALLVALUE DUP1 ISZERO PUSH2 0x82 JUMPI PUSH1 0x0 DUP1 REVERT JUMPDEST POP PUSH2 0x197 JUMP JUMPDEST DUP3 DUP1 SLOAD DUP3 DUP3 SSTORE SWAP1 PUSH1 0x0 MSTORE PUSH1 0x20 PUSH1 0x0 KECCAK256 SWAP1 DUP2 ADD SWAP3 DUP3 ISZERO PUSH2 0xD2 JUMPI SWAP2 PUSH1 0x20 MUL DUP3 ADD JUMPDEST DUP3 DUP2 GT ISZERO PUSH2 0xD1 JUMPI DUP3 MLOAD DUP3 SWAP1 PUSH1 0x3 PUSH2 0xC1 SWAP3 SWAP2 SWAP1 PUSH2 0xE3 JUMP JUMPDEST POP SWAP2 PUSH1 0x20 ADD SWAP2 SWAP1 PUSH1 0x1 ADD SWAP1 PUSH2 0xA8 JUMP JUMPDEST JUMPDEST POP SWAP1 POP PUSH2 0xDF SWAP2 SWAP1 PUSH2 0x135 JUMP JUMPDEST POP SWAP1 JUMP JUMPDEST DUP3 DUP1 SLOAD DUP3 DUP3 SSTORE SWAP1 PUSH1 0x0 MSTORE PUSH1 0x20 PUSH1 0x0 KECCAK256 SWAP1 DUP2 ADD SWAP3 DUP3 ISZERO PUSH2 0x124 JUMPI SWAP2 PUSH1 0x20 MUL DUP3 ADD JUMPDEST DUP3 DUP2 GT ISZERO PUSH2 0x123 JUMPI DUP3 MLOAD DUP3 SWAP1 PUSH1 0xFF AND SWAP1 SSTORE SWAP2 PUSH1 0x20 ADD SWAP2 SWAP1 PUSH1 0x1 ADD SWAP1 PUSH2 0x103 JUMP JUMPDEST JUMPDEST POP SWAP1 POP PUSH2 0x131 SWAP2 SWAP1 PUSH2 0x159 JUMP JUMPDEST POP SWAP1 JUMP JUMPDEST JUMPDEST DUP1 DUP3 GT ISZERO PUSH2 0x155 JUMPI PUSH1 0x0 DUP2 DUP2 PUSH2 0x14C SWAP2 SWAP1 PUSH2 0x176 JUMP JUMPDEST POP PUSH1 0x1 ADD PUSH2 0x136 JUMP JUMPDEST POP SWAP1 JUMP JUMPDEST JUMPDEST DUP1 DUP3 GT ISZERO PUSH2 0x172 JUMPI PUSH1 0x0 DUP2 PUSH1 0x0 SWAP1 SSTORE POP PUSH1 0x1 ADD PUSH2 0x15A JUMP JUMPDEST POP SWAP1 JUMP JUMPDEST POP DUP1 SLOAD PUSH1 0x0 DUP3 SSTORE SWAP1 PUSH1 0x0 MSTORE PUSH1 0x20 PUSH1 0x0 KECCAK256 SWAP1 DUP2 ADD SWAP1 PUSH2 0x194 SWAP2 SWAP1 PUSH2 0x159 JUMP JUMPDEST POP JUMP JUMPDEST PUSH2 0x846 DUP1 PUSH2 0x1A6 PUSH1 0x0 CODECOPY PUSH1 0x0 RETURN INVALID PUSH1 0x80 PUSH1 0x40 MSTORE CALLVALUE DUP1 ISZERO PUSH2 0x10 JUMPI PUSH1 0x0 DUP1 REVERT JUMPDEST POP PUSH1 0x4 CALLDATASIZE LT PUSH2 0x4C JUMPI PUSH1 0x0 CALLDATALOAD PUSH1 0xE0 SHR DUP1 PUSH4 0x26EB4DBB EQ PUSH2 0x51 JUMPI DUP1 PUSH4 0x3A5FBAAA EQ PUSH2 0x6F JUMPI DUP1 PUSH4 0x5E383D21 EQ PUSH2 0x8B JUMPI DUP1 PUSH4 0xD3268FC1 EQ PUSH2 0xBB JUMPI JUMPDEST PUSH1 0x0 DUP1 REVERT JUMPDEST PUSH2 0x59 PUSH2 0xEB JUMP JUMPDEST PUSH1 0x40 MLOAD PUSH2 0x66 SWAP2 SWAP1 PUSH2 0x231 JUMP JUMPDEST PUSH1 0x40 MLOAD DUP1 SWAP2 SUB SWAP1 RETURN JUMPDEST PUSH2 0x89 PUSH1 0x4 DUP1 CALLDATASIZE SUB DUP2 ADD SWAP1 PUSH2 0x84 SWAP2 SWAP1 PUSH2 0x3A6 JUMP JUMPDEST PUSH2 0xF7 JUMP JUMPDEST STOP JUMPDEST PUSH2 0xA5 PUSH1 0x4 DUP1 CALLDATASIZE SUB DUP2 ADD SWAP1 PUSH2 0xA0 SWAP2 SWAP1 PUSH2 0x41B JUMP JUMPDEST PUSH2 0x12F JUMP JUMPDEST PUSH1 0x40 MLOAD PUSH2 0xB2 SWAP2 SWAP1 PUSH2 0x4D0 JUMP JUMPDEST PUSH1 0x40 MLOAD DUP1 SWAP2 SUB SWAP1 RETURN JUMPDEST PUSH2 0xD5 PUSH1 0x4 DUP1 CALLDATASIZE SUB DUP2 ADD SWAP1 PUSH2 0xD0 SWAP2 SWAP1 PUSH2 0x4F2 JUMP JUMPDEST PUSH2 0x1DB JUMP JUMPDEST PUSH1 0x40 MLOAD PUSH2 0xE2 SWAP2 SWAP1 PUSH2 0x231 JUMP JUMPDEST PUSH1 0x40 MLOAD DUP1 SWAP2 SUB SWAP1 RETURN JUMPDEST PUSH1 0x0 DUP1 DUP1 SLOAD SWAP1 POP SWAP1 POP SWAP1 JUMP JUMPDEST PUSH1 0x0 DUP2 SWAP1 DUP1 PUSH1 0x1 DUP2 SLOAD ADD DUP1 DUP3 SSTORE DUP1 SWAP2 POP POP PUSH1 0x1 SWAP1 SUB SWAP1 PUSH1 0x0 MSTORE PUSH1 0x20 PUSH1 0x0 KECCAK256 ADD PUSH1 0x0 SWAP1 SWAP2 SWAP1 SWAP2 SWAP1 SWAP2 POP SWAP1 DUP2 PUSH2 0x12B SWAP2 SWAP1 PUSH2 0x73E JUMP JUMPDEST POP POP JUMP JUMPDEST PUSH1 0x0 DUP2 DUP2 SLOAD DUP2 LT PUSH2 0x13F JUMPI PUSH1 0x0 DUP1 REVERT JUMPDEST SWAP1 PUSH1 0x0 MSTORE PUSH1 0x20 PUSH1 0x0 KECCAK256 ADD PUSH1 0x0 SWAP2 POP SWAP1 POP DUP1 SLOAD PUSH2 0x15A SWAP1 PUSH2 0x561 JUMP JUMPDEST DUP1 PUSH1 0x1F ADD PUSH1 0x20 DUP1 SWAP2 DIV MUL PUSH1 0x20 ADD PUSH1 0x40 MLOAD SWAP1 DUP2 ADD PUSH1 0x40 MSTORE DUP1 SWAP3 SWAP2 SWAP1 DUP2 DUP2 MSTORE PUSH1 0x20 ADD DUP3 DUP1 SLOAD PUSH2 0x186 SWAP1 PUSH2 0x561 JUMP JUMPDEST DUP1 ISZERO PUSH2 0x1D3 JUMPI DUP1 PUSH1 0x1F LT PUSH2 0x1A8 JUMPI PUSH2 0x100 DUP1 DUP4 SLOAD DIV MUL DUP4 MSTORE SWAP2 PUSH1 0x20 ADD SWAP2 PUSH2 0x1D3 JUMP JUMPDEST DUP3 ADD SWAP2 SWAP1 PUSH1 0x0 MSTORE PUSH1 0x20 PUSH1 0x0 KECCAK256 SWAP1 JUMPDEST DUP2 SLOAD DUP2 MSTORE SWAP1 PUSH1 0x1 ADD SWAP1 PUSH1 0x20 ADD DUP1 DUP4 GT PUSH2 0x1B6 JUMPI DUP3 SWAP1 SUB PUSH1 0x1F AND DUP3 ADD SWAP2 JUMPDEST POP POP POP POP POP DUP2 JUMP JUMPDEST PUSH1 0x1 DUP3 DUP2 SLOAD DUP2 LT PUSH2 0x1EB JUMPI PUSH1 0x0 DUP1 REVERT JUMPDEST SWAP1 PUSH1 0x0 MSTORE PUSH1 0x20 PUSH1 0x0 KECCAK256 ADD DUP2 DUP2 SLOAD DUP2 LT PUSH2 0x203 JUMPI PUSH1 0x0 DUP1 REVERT JUMPDEST SWAP1 PUSH1 0x0 MSTORE PUSH1 0x20 PUSH1 0x0 KECCAK256 ADD PUSH1 0x0 SWAP2 POP SWAP2 POP POP SLOAD DUP2 JUMP JUMPDEST PUSH1 0x0 DUP2 SWAP1 POP SWAP2 SWAP1 POP JUMP JUMPDEST PUSH2 0x22B DUP2 PUSH2 0x218 JUMP JUMPDEST DUP3 MSTORE POP POP JUMP JUMPDEST PUSH1 0x0 PUSH1 0x20 DUP3 ADD SWAP1 POP PUSH2 0x246 PUSH1 0x0 DUP4 ADD DUP5 PUSH2 0x222 JUMP JUMPDEST SWAP3 SWAP2 POP POP JUMP JUMPDEST PUSH1 0x0 PUSH1 0x40 MLOAD SWAP1 POP SWAP1 JUMP JUMPDEST PUSH1 0x0 DUP1 REVERT JUMPDEST PUSH1 0x0 DUP1 REVERT JUMPDEST PUSH1 0x0 DUP1 REVERT JUMPDEST PUSH1 0x0 DUP1 REVERT JUMPDEST PUSH1 0x0 PUSH1 0x1F NOT PUSH1 0x1F DUP4 ADD AND SWAP1 POP SWAP2 SWAP1 POP JUMP JUMPDEST PUSH32 0x4E487B7100000000000000000000000000000000000000000000000000000000 PUSH1 0x0 MSTORE PUSH1 0x41 PUSH1 0x4 MSTORE PUSH1 0x24 PUSH1 0x0 REVERT JUMPDEST PUSH2 0x2B3 DUP3 PUSH2 0x26A JUMP JUMPDEST DUP2 ADD DUP2 DUP2 LT PUSH8 0xFFFFFFFFFFFFFFFF DUP3 GT OR ISZERO PUSH2 0x2D2 JUMPI PUSH2 0x2D1 PUSH2 0x27B JUMP JUMPDEST JUMPDEST DUP1 PUSH1 0x40 MSTORE POP POP POP JUMP JUMPDEST PUSH1 0x0 PUSH2 0x2E5 PUSH2 0x24C JUMP JUMPDEST SWAP1 POP PUSH2 0x2F1 DUP3 DUP3 PUSH2 0x2AA JUMP JUMPDEST SWAP2 SWAP1 POP JUMP JUMPDEST PUSH1 0x0 PUSH8 0xFFFFFFFFFFFFFFFF DUP3 GT ISZERO PUSH2 0x311 JUMPI PUSH2 0x310 PUSH2 0x27B JUMP JUMPDEST JUMPDEST PUSH2 0x31A DUP3 PUSH2 0x26A JUMP JUMPDEST SWAP1 POP PUSH1 0x20 DUP2 ADD SWAP1 POP SWAP2 SWAP1 POP JUMP JUMPDEST DUP3 DUP2 DUP4 CALLDATACOPY PUSH1 0x0 DUP4 DUP4 ADD MSTORE POP POP POP JUMP JUMPDEST PUSH1 0x0 PUSH2 0x349 PUSH2 0x344 DUP5 PUSH2 0x2F6 JUMP JUMPDEST PUSH2 0x2DB JUMP JUMPDEST SWAP1 POP DUP3 DUP2 MSTORE PUSH1 0x20 DUP2 ADD DUP5 DUP5 DUP5 ADD GT ISZERO PUSH2 0x365 JUMPI PUSH2 0x364 PUSH2 0x265 JUMP JUMPDEST JUMPDEST PUSH2 0x370 DUP5 DUP3 DUP6 PUSH2 0x327 JUMP JUMPDEST POP SWAP4 SWAP3 POP POP POP JUMP JUMPDEST PUSH1 0x0 DUP3 PUSH1 0x1F DUP4 ADD SLT PUSH2 0x38D JUMPI PUSH2 0x38C PUSH2 0x260 JUMP JUMPDEST JUMPDEST DUP2 CALLDATALOAD PUSH2 0x39D DUP5 DUP3 PUSH1 0x20 DUP7 ADD PUSH2 0x336 JUMP JUMPDEST SWAP2 POP POP SWAP3 SWAP2 POP POP JUMP JUMPDEST PUSH1 0x0 PUSH1 0x20 DUP3 DUP5 SUB SLT ISZERO PUSH2 0x3BC JUMPI PUSH2 0x3BB PUSH2 0x256 JUMP JUMPDEST JUMPDEST PUSH1 0x0 DUP3 ADD CALLDATALOAD PUSH8 0xFFFFFFFFFFFFFFFF DUP2 GT ISZERO PUSH2 0x3DA JUMPI PUSH2 0x3D9 PUSH2 0x25B JUMP JUMPDEST JUMPDEST PUSH2 0x3E6 DUP5 DUP3 DUP6 ADD PUSH2 0x378 JUMP JUMPDEST SWAP2 POP POP SWAP3 SWAP2 POP POP JUMP JUMPDEST PUSH2 0x3F8 DUP2 PUSH2 0x218 JUMP JUMPDEST DUP2 EQ PUSH2 0x403 JUMPI PUSH1 0x0 DUP1 REVERT JUMPDEST POP JUMP JUMPDEST PUSH1 0x0 DUP2 CALLDATALOAD SWAP1 POP PUSH2 0x415 DUP2 PUSH2 0x3EF JUMP JUMPDEST SWAP3 SWAP2 POP POP JUMP JUMPDEST PUSH1 0x0 PUSH1 0x20 DUP3 DUP5 SUB SLT ISZERO PUSH2 0x431 JUMPI PUSH2 0x430 PUSH2 0x256 JUMP JUMPDEST JUMPDEST PUSH1 0x0 PUSH2 0x43F DUP5 DUP3 DUP6 ADD PUSH2 0x406 JUMP JUMPDEST SWAP2 POP POP SWAP3 SWAP2 POP POP JUMP JUMPDEST PUSH1 0x0 DUP2 MLOAD SWAP1 POP SWAP2 SWAP1 POP JUMP JUMPDEST PUSH1 0x0 DUP3 DUP3 MSTORE PUSH1 0x20 DUP3 ADD SWAP1 POP SWAP3 SWAP2 POP POP JUMP JUMPDEST PUSH1 0x0 JUMPDEST DUP4 DUP2 LT ISZERO PUSH2 0x482 JUMPI DUP1 DUP3 ADD MLOAD DUP2 DUP5 ADD MSTORE PUSH1 0x20 DUP2 ADD SWAP1 POP PUSH2 0x467 JUMP JUMPDEST DUP4 DUP2 GT ISZERO PUSH2 0x491 JUMPI PUSH1 0x0 DUP5 DUP5 ADD MSTORE JUMPDEST POP POP POP POP JUMP JUMPDEST PUSH1 0x0 PUSH2 0x4A2 DUP3 PUSH2 0x448 JUMP JUMPDEST PUSH2 0x4AC DUP2 DUP6 PUSH2 0x453 JUMP JUMPDEST SWAP4 POP PUSH2 0x4BC DUP2 DUP6 PUSH1 0x20 DUP7 ADD PUSH2 0x464 JUMP JUMPDEST PUSH2 0x4C5 DUP2 PUSH2 0x26A JUMP JUMPDEST DUP5 ADD SWAP2 POP POP SWAP3 SWAP2 POP POP JUMP JUMPDEST PUSH1 0x0 PUSH1 0x20 DUP3 ADD SWAP1 POP DUP2 DUP2 SUB PUSH1 0x0 DUP4 ADD MSTORE PUSH2 0x4EA DUP2 DUP5 PUSH2 0x497 JUMP JUMPDEST SWAP1 POP SWAP3 SWAP2 POP POP JUMP JUMPDEST PUSH1 0x0 DUP1 PUSH1 0x40 DUP4 DUP6 SUB SLT ISZERO PUSH2 0x509 JUMPI PUSH2 0x508 PUSH2 0x256 JUMP JUMPDEST JUMPDEST PUSH1 0x0 PUSH2 0x517 DUP6 DUP3 DUP7 ADD PUSH2 0x406 JUMP JUMPDEST SWAP3 POP POP PUSH1 0x20 PUSH2 0x528 DUP6 DUP3 DUP7 ADD PUSH2 0x406 JUMP JUMPDEST SWAP2 POP POP SWAP3 POP SWAP3 SWAP1 POP JUMP JUMPDEST PUSH32 0x4E487B7100000000000000000000000000000000000000000000000000000000 PUSH1 0x0 MSTORE PUSH1 0x22 PUSH1 0x4 MSTORE PUSH1 0x24 PUSH1 0x0 REVERT JUMPDEST PUSH1 0x0 PUSH1 0x2 DUP3 DIV SWAP1 POP PUSH1 0x1 DUP3 AND DUP1 PUSH2 0x579 JUMPI PUSH1 0x7F DUP3 AND SWAP2 POP JUMPDEST PUSH1 0x20 DUP3 LT DUP2 SUB PUSH2 0x58C JUMPI PUSH2 0x58B PUSH2 0x532 JUMP JUMPDEST JUMPDEST POP SWAP2 SWAP1 POP JUMP JUMPDEST PUSH1 0x0 DUP2 SWAP1 POP DUP2 PUSH1 0x0 MSTORE PUSH1 0x20 PUSH1 0x0 KECCAK256 SWAP1 POP SWAP2 SWAP1 POP JUMP JUMPDEST PUSH1 0x0 PUSH1 0x20 PUSH1 0x1F DUP4 ADD DIV SWAP1 POP SWAP2 SWAP1 POP JUMP JUMPDEST PUSH1 0x0 DUP3 DUP3 SHL SWAP1 POP SWAP3 SWAP2 POP POP JUMP JUMPDEST PUSH1 0x0 PUSH1 0x8 DUP4 MUL PUSH2 0x5F4 PUSH32 0xFFFFFFFFFFFFFFFFFFFFFFFFFFFFFFFFFFFFFFFFFFFFFFFFFFFFFFFFFFFFFFFF DUP3 PUSH2 0x5B7 JUMP JUMPDEST PUSH2 0x5FE DUP7 DUP4 PUSH2 0x5B7 JUMP JUMPDEST SWAP6 POP DUP1 NOT DUP5 AND SWAP4 POP DUP1 DUP7 AND DUP5 OR SWAP3 POP POP POP SWAP4 SWAP3 POP POP POP JUMP JUMPDEST PUSH1 0x0 DUP2 SWAP1 POP SWAP2 SWAP1 POP JUMP JUMPDEST PUSH1 0x0 PUSH2 0x63B PUSH2 0x636 PUSH2 0x631 DUP5 PUSH2 0x218 JUMP JUMPDEST PUSH2 0x616 JUMP JUMPDEST PUSH2 0x218 JUMP JUMPDEST SWAP1 POP SWAP2 SWAP1 POP JUMP JUMPDEST PUSH1 0x0 DUP2 SWAP1 POP SWAP2 SWAP1 POP JUMP JUMPDEST PUSH2 0x655 DUP4 PUSH2 0x620 JUMP JUMPDEST PUSH2 0x669 PUSH2 0x661 DUP3 PUSH2 0x642 JUMP JUMPDEST DUP5 DUP5 SLOAD PUSH2 0x5C4 JUMP JUMPDEST DUP3 SSTORE POP POP POP POP JUMP JUMPDEST PUSH1 0x0 SWAP1 JUMP JUMPDEST PUSH2 0x67E PUSH2 0x671 JUMP JUMPDEST PUSH2 0x689 DUP2 DUP5 DUP5 PUSH2 0x64C JUMP JUMPDEST POP POP POP JUMP JUMPDEST JUMPDEST DUP2 DUP2 LT ISZERO PUSH2 0x6AD JUMPI PUSH2 0x6A2 PUSH1 0x0 DUP3 PUSH2 0x676 JUMP JUMPDEST PUSH1 0x1 DUP2 ADD SWAP1 POP PUSH2 0x68F JUMP JUMPDEST POP POP JUMP JUMPDEST PUSH1 0x1F DUP3 GT ISZERO PUSH2 0x6F2 JUMPI PUSH2 0x6C3 DUP2 PUSH2 0x592 JUMP JUMPDEST PUSH2 0x6CC DUP5 PUSH2 0x5A7 JUMP JUMPDEST DUP2 ADD PUSH1 0x20 DUP6 LT ISZERO PUSH2 0x6DB JUMPI DUP2 SWAP1 POP JUMPDEST PUSH2 0x6EF PUSH2 0x6E7 DUP6 PUSH2 0x5A7 JUMP JUMPDEST DUP4 ADD DUP3 PUSH2 0x68E JUMP JUMPDEST POP POP JUMPDEST POP POP POP JUMP JUMPDEST PUSH1 0x0 DUP3 DUP3 SHR SWAP1 POP SWAP3 SWAP2 POP POP JUMP JUMPDEST PUSH1 0x0 PUSH2 0x715 PUSH1 0x0 NOT DUP5 PUSH1 0x8 MUL PUSH2 0x6F7 JUMP JUMPDEST NOT DUP1 DUP4 AND SWAP2 POP POP SWAP3 SWAP2 POP POP JUMP JUMPDEST PUSH1 0x0 PUSH2 0x72E DUP4 DUP4 PUSH2 0x704 JUMP JUMPDEST SWAP2 POP DUP3 PUSH1 0x2 MUL DUP3 OR SWAP1 POP SWAP3 SWAP2 POP POP JUMP JUMPDEST PUSH2 0x747 DUP3 PUSH2 0x448 JUMP JUMPDEST PUSH8 0xFFFFFFFFFFFFFFFF DUP2 GT ISZERO PUSH2 0x760 JUMPI PUSH2 0x75F PUSH2 0x27B JUMP JUMPDEST JUMPDEST PUSH2 0x76A DUP3 SLOAD PUSH2 0x561 JUMP JUMPDEST PUSH2 0x775 DUP3 DUP3 DUP6 PUSH2 0x6B1 JUMP JUMPDEST PUSH1 0x0 PUSH1 0x20 SWAP1 POP PUSH1 0x1F DUP4 GT PUSH1 0x1 DUP2 EQ PUSH2 0x7A8 JUMPI PUSH1 0x0 DUP5 ISZERO PUSH2 0x796 JUMPI DUP3 DUP8 ADD MLOAD SWAP1 POP JUMPDEST PUSH2 0x7A0 DUP6 DUP3 PUSH2 0x722 JUMP JUMPDEST DUP7 SSTORE POP PUSH2 0x808 JUMP JUMPDEST PUSH1 0x1F NOT DUP5 AND PUSH2 0x7B6 DUP7 PUSH2 0x592 JUMP JUMPDEST PUSH1 0x0 JUMPDEST DUP3 DUP2 LT ISZERO PUSH2 0x7DE JUMPI DUP5 DUP10 ADD MLOAD DUP3 SSTORE PUSH1 0x1 DUP3 ADD SWAP2 POP PUSH1 0x20 DUP6 ADD SWAP5 POP PUSH1 0x20 DUP2 ADD SWAP1 POP PUSH2 0x7B9 JUMP JUMPDEST DUP7 DUP4 LT ISZERO PUSH2 0x7FB JUMPI DUP5 DUP10 ADD MLOAD PUSH2 0x7F7 PUSH1 0x1F DUP10 AND DUP3 PUSH2 0x704 JUMP JUMPDEST DUP4 SSTORE POP JUMPDEST PUSH1 0x1 PUSH1 0x2 DUP9 MUL ADD DUP9 SSTORE POP POP POP JUMPDEST POP POP POP POP POP POP JUMP INVALID LOG2 PUSH5 0x6970667358 0x22 SLT KECCAK256 JUMP PUSH19 0x5732EF774287C9C396C8665A6C45A724E2842D 0xA5 PUSH11 0xD771B9AD393E8DFBA46473 PUSH16 0x6C634300080F00330000000000000000 "
				},
				"gasEstimates": {
					"creation": {
						"codeDepositCost": "423600",
						"executionCost": "infinite",
						"totalCost": "infinite"
					},
					"external": {
						"addValue(string)": "infinite",
						"array2D(uint256,uint256)": "infinite",
						"valueCount()": "2423",
						"values(uint256)": "infinite"
					}
				},
				"methodIdentifiers": {
					"addValue(string)": "3a5fbaaa",
					"array2D(uint256,uint256)": "d3268fc1",
					"valueCount()": "26eb4dbb",
					"values(uint256)": "5e383d21"
				}
			},
			"storageLayout": {
				"storage": [
					{
						"astId": 4,
						"contract": "MyContract.sol:MyContract",
						"label": "values",
						"offset": 0,
						"slot": "0",
						"type": "t_array(t_string_storage)dyn_storage"
					},
					{
						"astId": 17,
						"contract": "MyContract.sol:MyContract",
						"label": "array2D",
						"offset": 0,
						"slot": "1",
						"type": "t_array(t_array(t_uint256)dyn_storage)dyn_storage"
					}
				],
				"types": {
					"t_array(t_array(t_uint256)dyn_storage)dyn_storage": {
						"base": "t_array(t_uint256)dyn_storage",
						"encoding": "dynamic_array",
						"label": "uint256[][]",
						"numberOfBytes": "32"
					},
					"t_array(t_string_storage)dyn_storage": {
						"base": "t_string_storage",
						"encoding": "dynamic_array",
						"label": "string[]",
						"numberOfBytes": "32"
					},
					"t_array(t_uint256)dyn_storage": {
						"base": "t_uint256",
						"encoding": "dynamic_array",
						"label": "uint256[]",
						"numberOfBytes": "32"
					},
					"t_string_storage": {
						"encoding": "bytes",
						"label": "string",
						"numberOfBytes": "32"
					},
					"t_uint256": {
						"encoding": "inplace",
						"label": "uint256",
						"numberOfBytes": "32"
					}
				}
			},
			"userdoc": {
				"kind": "user",
				"methods": {},
				"version": 1
			}
		}
	}
}